:020000040000FA
:10000000FC7F00200D060000FD0500000106000039
:1000100000000000000000000000000000000000E0
:1000200000000000000000000000000005060000C5
:100030000000000000000000090600004D0700005D
:1000400010B5064C2378002B07D1054B002B02D0AE
:10005000044800E000BF0123237010BD5C000020B5
:1000600000000000A818000008B5084B002B03D0C2
:100070000748084900E000BF07480368002B03D089
:10008000064B002B00D0984708BDC046000000007A
:10009000A8180000600000205800002000000000A8
:1000A000154A164B1178002909D115491878097895
:1000B0004118C9B2197080201249400008601178B7
:1000C0000131C9B211701978F02902D819780929BB
:1000D00009D80B4908784042C0B2087018780978EE
:1000E0004118C9B2197012781B789A4203D1802244
:1000F000044B52001A607047780000200100002075
:10010000000000209C44004110B5C3699C07FCD44A
:1001100003680224A3430360C46901231C42FBD18A
:100120000468234303600368DC07FCD4C46901232B
:100130001C42FBD1C469DC401C42F7D1084B1A4376
:100140000260C3695A07FCD4C0239B0243608181CB
:10015000C3699C07FCD4036802221343036010BDEB
:1001600004000040037EDA07FCD5018570470000DB
:10017000027E01235107FBD5428B1A4207D1428BE5
:10018000DA401A4203D1428B92081A4202D0034B42
:1001900001221A70008DC0B27047C046790000205D
:1001A00070B50368041C988B1A1C0821FF320842A2
:1001B00026D0802099839872112353704021144BCC
:1001C000917150715E68134DC0202E40800506432A
:1001D0005E605E693540284358610F4818600F48DB
:1001E00018615D680E4828408025AD02284358609C
:1001F0005868800B8003586000235171237105E01B
:10020000137ADA0602D5201C00F0DAFA207970BDE4
:1002100098010020FFFFFF8F9800002018010020A8
:10022000FF3F00F0002303714371044B01608360C2
:100230000B78022213430B707047C046A1010000E7
:1002400038B5364B2021DA6901200A43DA61344B94
:1002500006241A7802431A70324B0F221978914300
:1002600019701978214319702F490C7820430870B0
:1002700019780A401A701A7860210A431A702B4BB9
:100280002B4A5A805A7852B2002AFBDB294B0121B3
:100290001A780A431A709A78D107FCD42648026863
:1002A000510B1F221140914200D1052111408C01B8
:1002B0001D8D22492940214319850468A10C0A405B
:1002C0001F2A00D11D221C8D1F210A408C4322436E
:1002D0001A8502680721D20D0A408A4200D1032202
:1002E0000A40188D1103164A02400A431A851978EC
:1002F0007F220A401A701A78042112480A431A70A1
:1003000058621A890C218A431A811A8901218A4369
:100310001A810021802201F046F938BD0004004016
:10032000584400413C44004159440041000C004005
:100330000640000000500041246080003FF8FFFFAD
:10034000FF8FFFFF98010020F7B5141C1F4A5F01C3
:1003500001971D1CD319061C5869271C4000400F2B
:1003600003301033C74006D00F1C80225968120694
:100370000A435A6009E02F1C7B1E9F41144BBF01AA
:10038000FF18381C221C01F005F901990F480835A7
:1003900042181761131C5269A104920B890C920335
:1003A0000A435A6159690B4A0A405A616B01F318B2
:1003B0000222DA715979802252420A435A716B0142
:1003C000F318DB799A07FAD5201CFEBD98010020AE
:1003D00018010020FF3F00F0F8B51A4E051C3378D5
:1003E000141C002B12D1184B184A1A645A6C920B29
:1003F00092035A64586C164A02405A64A2235B0066
:10040000EA5C40200243EA54012333704827FF3757
:10041000EA5D0123134012D00B4B5A6C9204920CEC
:10042000A24202D25C6CA404A40C081C221C074942
:1004300001F0B0F80123EB550023337000E01C1CE1
:10044000201CF8BD7A00002098010020D800002070
:10045000FF3F00F0FF3083792022002900D11022D5
:100460001343837170470000084BFF305A69920BA9
:1004700092035A6102230372827980235B42134301
:100480008371037A9A07FCD57047C0469801002013
:1004900080235B421943C9B28172704770B5A023B3
:1004A00003225B00C254134B134A5C6CC0211440FE
:1004B00089050C4346255C64FF35402444550F4DA7
:1004C00030261D6490256D0046555D6B154029430F
:1004D000922559636D0080214155094D1D63B0255A
:1004E0006D0044555C6F22405A67B2235B00C154D3
:1004F00070BDC04698010020FFFFFF8FD80000208C
:1005000058010020024B5B785BB2002BFADB70478E
:10051000000C0040024BDB68DA06FBD57047C04692
:1005200000080040F8B52A4B1E2259689143022268
:1005300011435960274B28491E1C9982998A0A4306
:100540009A82F3680227234C3B42FAD0234D0123C1
:10055000AB60FFF7D7FF224B6B60FFF7D3FF82231F
:10056000DB016B80FFF7CEFFA38C80229343A38433
:10057000FFF7D0FF1B4BE362FFF7CCFFA38C1A4AB7
:100580001343A384FFF7C6FFA38C1F43A784F3681C
:100590001A06FCD50F4BDB685A06F8D50024FFF786
:1005A000B9FFAC60FFF7AEFF104B6B60FFF7AAFF1F
:1005B0000F4B104AC0215A600F4A0906106A000208
:1005C000000A0143116207229C601A60F8BDC04610
:1005D00000400041000800400C060000000C0040F4
:1005E00001050100B805FF7D040A000000070300B3
:1005F00010E000E0E703000000ED00E00EBEFEE7C3
:100600000DBEFEE705BEFEE702BEFEE70E4A0F483E
:1006100038B5824204D10E4A0E4B93420ED10AE005
:100620000D4C9442F7D00023D1188842F3D9E558F5
:1006300004330D60F8E700F011F804E09342FAD2B9
:10064000002102C3FAE7FEE7000000205C00002062
:10065000A80300205C000020AC18000038B5304B27
:100660001A681C1C013221D02E4A191D1160D9B202
:1006700000291BD12C4A1078012210402B4A0AD1A4
:1006800015682B498D4201D110600FE01160294996
:1006900001390029FCD11160226882F30888FF2209
:1006A0009343254A93601E4B5B681847FFF73AFF58
:1006B00062B600F09DFD00F04FF8204B8022520002
:1006C0001A601F4B1F4A041C5A601B4AC021106A43
:1006D00009060002000A0143116200229A60072203
:1006E0001A60A368201C9847174B002801D00122EC
:1006F0001A701A78002A05D0002000F08BFA00F05A
:1007000003FBFCE71B78002BEBD100F0E5FD002894
:10071000E7D0012000F07EFA00F0F6FAFCE7C046D0
:10072000002000001802002038040040FC7F002058
:100730003581730748E8010000ED00E0884400417E
:1007400010E000E0E70300007B00002008B5FFF7A1
:10075000A7FC00F0C3FA08BD10B5054B054C23609B
:10076000FFF76EFD201C2168FFF75CFD201C10BD0B
:10077000005000411C02002070B5051CC0B0081CD0
:10078000161C0C1C00F017FF40006A4603230230C1
:100790005370107076080123E218013A11785A005C
:1007A000002906D1281C69460023FFF7CDFD40B083
:1007B00070BDB342F6DA684681520133ECE70000BF
:1007C000F7B5BA4A04681378B949271CFF37051CE6
:1007D000102038720B705378B648B74E0370937878
:1007E0003380D178338809020B4333801179B34BBE
:1007F0001980517918880902084318809079B04906
:100800000880D2790888120202430A8040227A7155
:10081000A84F3A78A64F120238780F1C0243A94815
:100820008446181C624500D1C2E020DC80214900CA
:100830008A4200D16EE109DC812A00D192E0822A4D
:1008400000D195E0802A00D064E18BE081235B0039
:100850009A4200D1CFE000DA58E1C0239B009A42CF
:1008600000D157E1984B9A4200D14FE152E19023D9
:100870001B019A4269D015DCD023DB009A4222D0BA
:1008800088231B019A4269D0A023DB009A4200D042
:1008900040E1201CFFF7E8FD3188286889B2FFF7A6
:1008A000F7FD3BE1894B9A4200D12FE100DC31E1B9
:1008B000874B9A4200D11DE1864B9A4200D029E134
:1008C00033886B7122E133881B0A012B08D10B8816
:1008D00012222868934201D80A8892B27E4911E117
:1008E00033881B0A022B08D10B88432228689342C5
:1008F00001D80A8892B2794904E133881B0A032B94
:1009000000D007E13388DBB2012B17D0002B07D0D2
:10091000022B00D0FEE00A882868D2B2704911E0AC
:10092000042201A86F4900F035FE3B8804222868A4
:10093000934201D83A8892B201A9E3E00A88286874
:100940006949D2B2FFF718FFE8E03388201C2B7109
:10095000FFF78AFD201CFFF7A1FDDFE0291C01C97C
:100960000122CFE0614900230B8028680222CAE0FF
:100970005E4900220A801888502210405C4A10709C
:100980001E880F20304018801888032800D9C1E045
:1009900012781B8808335B01E418A379002A01D080
:1009A0009B0600E0DB06DB0F0B8028680222A9E033
:1009B00019887F2291434E4AC9B2117018880F21BD
:1009C000014019803188002900D0A3E0198800294E
:1009D00000D19FE01988032900D99BE012781B8879
:1009E00008335B01E318002A02D020225A718DE0FF
:1009F000102159718AE002887F239A433C4BD2B27E
:100A00001A7001880F220A4002803288002A00D022
:100A100080E00288002A00D17CE00288032A00D905
:100A200078E01B78002B1FD0038808335B01E318A4
:100A30009B799A066AD50388202208335B01E31864
:100A40001A71038808335B01E318DB795F065DD513
:100A50000388402208335B01E318DA71038802221D
:100A600008335B01E3181EE0038808335B01E318D9
:100A70009B79D9064AD50388102208335B01E31815
:100A80001A71038808335B01E318DB799A063DD5B8
:100A90000388202208335B01E318DA7103880122FE
:100AA00008335B01E3181A7130E0C046980000205B
:100AB0007D000020820000208400002086000020AD
:100AC000800000200203000001030000212000003C
:100AD000A121000021220000FC15000004000020DC
:100AE000EC150000DC150000E01500007E00002081
:100AF0007C0000200B8808222868934201D80A88CD
:100B000092B207490023FFF71FFC07E0201CFFF704
:100B1000ABFC03E0201C0121FFF79CFCF7BDC046A5
:100B20004800002007B5054B0122019001A9186873
:100B3000131CFFF709FC01200EBDC0461C0200205B
:100B400013B5054B6C4607341868211C0122FFF7CA
:100B500043FC207816BDC0461C02002010B5074C8F
:100B6000201CFFF71DFB031C0020834205D02268D8
:100B70004823FF33D05C0123184010BD1C02002025
:100B800010B5054A0C1C031C191C10680123221CFB
:100B9000FFF7DAFB201C10BD1C02002070B5084CCA
:100BA000061C201C0D1CFFF7FBFA0023984205D001
:100BB0002068311C2A1CFFF70FFC031C181C70BD99
:100BC0001C020020F8B50C4C051C201C0E1CFFF765
:100BD000E7FA0023271C341C98420AD0002C07D0C7
:100BE000291C221C3868FFF7F7FB241A2D18F5E79B
:100BF000331C181CF8BDC0461C02002008B5031C9D
:100C0000081C111C9847024B64221A8008BDC0467C
:100C10008C000020012805D1054B064A1A60064BBE
:100C2000187004E0002802D1044A014B1A60704792
:100C30008C02002030160000940000207C1600007A
:100C400030B50A1C1C4985B00978031C00292AD03C
:100C5000042A01D1006804E0022A01D1008800E0E2
:100C60000078520004A98B180B3B9C1AA3420BD0AE
:100C70000F210140092902D83025294300E03731EE
:100C800019700009013BF1E701A930230B707823AB
:100C90004B700A208B1898700D20D870074B0432C7
:100CA0001B68D86803E005490968C868191CFFF784
:100CB000A5FF05B030BDC046880000208C02002092
:100CC00072B6EFF30883044A1360036883F308885D
:100CD000436818477047C04690020020084B1A88A6
:100CE000002A03D01A88013A92B21A80054B1A885A
:100CF000002A03D01A88013A92B21A807047C0467F
:100D00008C0000208A000020F0B591B008A9CC4AE0
:100D10000B1C31CA31C351CA51C360CA60C3C94B2D
:100D2000C9489A687A255203520F92005258C7490F
:100D300002609C68A4B262430C60C54900240A604A
:100D4000C44A1460C44C2570C44CC54D2368281C8B
:100D50001B6940219847002802D0C24B64221A80A8
:100D6000C14B00221860C14B1D60C14BC04DBE4F2E
:100D70001A602A683B689A42E6D2BC4B1B681A7814
:100D8000FF2A00D114E2232A00D0EBE1B94E3378D8
:100D9000002B06D0B14BB8491B680222D868FFF778
:100DA0002DFFAD4B1B78532B3CD13B682A689342F7
:100DB0001ED9AE4801322A609A1AB04B01681B68EE
:100DC00001310160AE4E9A4201D2326000E03360E0
:100DD000A04832680068049000F0DCFB33682968A2
:100DE0005A182A60A14A1668F1181160A54A1370B2
:100DF0002B68013B2B609D4B1A68013A1A60A14B8E
:100E00009E4A1B7811688B420AD222689148C91AFF
:100E1000006892699047002802D0924B64221A80A1
:100E2000C0468DE1522B0AD18A48944A2368006853
:100E300011685B69039098476422934B0DE04F2B38
:100E400005D1844B8D4A1B6812681A7078E1482BD3
:100E500005D1804B894A1B6812681A8070E1572BB4
:100E600005D17C4B854A1B6812681A6068E16F2BBC
:100E700003D1784B0121186807E0682B08D1754B26
:100E80007E481B6802211B880360FFF7D9FE57E1EB
:100E9000772B06D16F4B79481B6804211B680360D0
:100EA000F3E7472B13D1754B1868FFF709FF774B12
:100EB0001B6883F3088862B6754B1B78002B00D142
:100EC0003EE1664B06201B681B68984738E1542BAF
:100ED00004D101233370614B1B6864E04E2B0CD1AD
:100EE0003378002B06D15D4B63491B680222D8681A
:100EF000FFF784FE0023337022E1562B57D123687D
:100F00006449D8680122FFF779FE23686249D868EE
:100F10000322FFF773FE614D2368291CD868012264
:100F2000FFF76CFE23685E49D8680D22FFF766FE66
:100F30002368291CD8680122FFF760FE4B4F4C4DF7
:100F40005849002339602B603A1C281C13685E1C2A
:100F500016601B780593002B03D0036801330360F0
:100F6000F4E73E4E2A683368D868FFF747FE3368D7
:100F70004A49D8680122FFF741FE059929604A498C
:100F800039603A4A1368581C10601B78002B04D053
:100F9000374B1A6801321A60F3E733682A68D86859
:100FA000FFF72CFE3368D86833490222C6E0334A83
:100FB000582B17D1244E264D366813682A68B10085
:100FC00093420AD21F4D5808E861384828801D4DC9
:100FD000287DC607FBD55B18F2E7204B34491B6818
:100FE000D868AAE0592B79D112681A4B3149002AE6
:100FF00002D11B680B606CE0124D086819686B68C1
:10100000104E8025AB4392087360002A61D02A4BB2
:101010000C4D2B800B4E337DDD07FBD500230A4D95
:101020002D680195AD08AB4203D3244D054E3580A4
:1010300046E09342F9D09D00465901334E51EEE708
:101040001016000000400041440200203C02002035
:101050003802002088020020340200208C02002088
:10106000480200208A0000202C02002030020020CC
:10107000400200208800002070160000940200202A
:1010800098020020280200208C00002090020020FE
:10109000940000204C160000751600004E1600004B
:1010A00098160000501600005C16000002A5FFFF15
:1010B000651600009000002044A5FFFF04A5FFFF77
:1010C0003F4E357DEE07FBD59D0049194019D21AD8
:1010D0009BE73C4B3C491B68D8682EE05A2B2FD12C
:1010E0003A4B17681D680026EF19BD4206D02878D4
:1010F000311C00F013F90135061CF6E7314B344979
:101100001B680122D868FFF779FD07230F223240C0
:10111000111C36093031092A00DD07311820C018AA
:101120006A468154013BF1D2236806A9D868082297
:10113000FFF764FD23682749D8680322FFF75EFDA7
:10114000254B7A221A70254B00221A60244B1B78FB
:1011500093422DD01B4B23491B680122D868FFF70F
:101160004DFD25E0111C3039C8B21C4B092804D8AC
:101170001D682A01114319601AE0111C4139052923
:1011800003D81E68373A310106E0111C6139052980
:1011900004D81868573A01010A4308E02C2A03D101
:1011A0000A4A1968116001E00B490A7000221A60AE
:1011B0000D4B1A6801321A600C4B1A680132D5E5E2
:1011C000004000418C0200206916000088020020C7
:1011D0006D1600006F1600003402002094020020FB
:1011E000880000207316000040020020300200201A
:1011F00010B51C4B01201A78032402431A701A4BB5
:101200000F221978914319701978214319701749E1
:101210000C782043087019780A401A701A78302127
:101220000A431A70124B80211A6A0A431A62114B40
:10123000114A5A805A7852B2002AFBDBC4220F4866
:101240000F499203FEF760FF0E4A002313700E4A07
:1012500013700E4A13700E4A13700E4A13700E4A22
:10126000137010BDD6440041BB440041D744004137
:1012700000040040000C004019400000001C004227
:101280002AF600009C020020230300209D0200207B
:10129000A0020020240300202103002008B5C1B2D1
:1012A0000248FEF75FFF012008BDC046001C004257
:1012B000024B187E4007C00F7047C046001C00421A
:1012C00008B5FFF7F5FF0028FBD00248FEF750FFF6
:1012D00008BDC046001C004208B5FFF7E9FF002327
:1012E000984205D0FFF7ECFF031C233B5A425341C1
:1012F000181C08BD70B5041C0D1C4618B44204D05F
:101300002078FFF7CBFF0134F8E7281C70BD10B53B
:10131000041CFFF7D5FF2070012010BD0B0A5840B8
:10132000034B4000C05A0902484080B27047C04693
:10133000A6160000F7B50024051C0F1C261CBC4295
:1013400020D0FFF7BDFF114BC0B21B780190002BDE
:101350001AD1311CFFF7E2FF0D4B061C1A88002A38
:1013600004D10C4A11782A1C002907D001996A1C63
:101370002970802F02D11988013919800134A4B253
:10138000151CDCE7301C00E00120FEBD210300201D
:101390009E02002022030020F0B53E4E85B00022C0
:1013A00003900C1C32703C4B914201D1012201E0B0
:1013B0003A490C801A707F231C4201D080349C4330
:1013C000FFF77EFF3378C0B2002B07D000253570C1
:1013D000FFF776FF3378C0B2AB4236D1432803D053
:1013E000712853D01528EBD1012300930120FFF77A
:1013F00055FF0098FFF752FF00998025C843C0B2FF
:10140000FFF74CFF039B00270293244A1388002B0D
:101410001DD1214901930978002918D10198FFF7BE
:101420003DFF391C0198FFF779FF013D071C002D96
:10143000EBD1000AC0B2FFF731FFF8B2FFF72EFF81
:10144000FFF73EFF3378002B0AD035701FE002997A
:10145000013B09781380029B019101330293DDE780
:10146000C0B2062807D1009B03990133DBB280315B
:101470000093803C0391002CB8D10420FFF70EFFAD
:10148000FFF71EFF044B01251C7000E00025281CFF
:1014900005B0F0BD21030020220300209E020020A1
:1014A000F0B5384C87B0002301902370994201D1E8
:1014B000012301E0344A1180344A6426137043202A
:1014C000FFF7ECFE324FFFF7F3FE002803D1002FA9
:1014D00003D0013FF7E7002F03D1013E002EEED1EC
:1014E0004DE00125FFF7ECFE2378002B38D1C0B288
:1014F0000290012805D004283DD10620FFF7CEFE3A
:1015000039E005AE0221301CFFF714FF019880215D
:10151000FFF710FF23780390002B18D1FFF7D0FEC0
:101520000702FFF7CDFEBFB223783F18BFB2012BF1
:101530000DD0039B9F4207D13378AB4204D1EB43DC
:101540007278DBB29A4204D01820FFF7A7FE00237E
:1015500003E00620FFF7A2FE029B2278002A02D0B9
:10156000002626700BE0012B05D1019A6B1C8032FE
:10157000DDB20192B6E7054A002313700126301C44
:1015800007B0F0BD210300209E02002022030020AE
:1015900000350C0010B50023934203D0CC5CC4543A
:1015A0000133F9E710BD031C8218934202D0197071
:1015B0000133FAE770470023C25C0133002AFBD1F4
:1015C000581E7047F8B5C046F8BC08BC9E46704728
:1015D000F8B5C046F8BC08BC9E4670470403090431
:1015E00041726475696E6F204C4C430041726475A2
:1015F000696E6F204D4B525A65726F0012010002E6
:101600000200004041234F000002010200010000DF
:101610000800000010000000200000004000000052
:101620008000000000010000000200000004000033
:101630009D120000C1120000B1120000F51200005E
:101640000F13000099130000A11400007600200081
:1016500041707220313120323031390031333A302B
:10166000393A353300580A0D00590A0D005A002343
:101670000A0D003E00322E3000000000250B000055
:10168000410B00005D0B0000810B00009D0B000072
:10169000810B0000C50B00005B41726475696E6FC1
:1016A0003A58595A5D0000002110422063308440AE
:1016B000A550C660E770088129914AA16BB18CC121
:1016C000ADD1CEE1EFF13112100273325222B55298
:1016D0009442F772D662399318837BB35AA3BDD371
:1016E0009CC3FFF3DEE36224433420040114E66468
:1016F000C774A44485546AA54BB528850995EEE5C1
:10170000CFF5ACC58DD55336722611163006D77677
:10171000F6669556B4465BB77AA719973887DFF710
:10172000FEE79DD7BCC7C448E5588668A77840083F
:10173000611802282338CCC9EDD98EE9AFF9488960
:1017400069990AA92BB9F55AD44AB77A966A711AD7
:10175000500A333A122AFDDBDCCBBFFB9EEB799BB0
:10176000588B3BBB1AABA66C877CE44CC55C222C27
:10177000033C600C411CAEED8FFDECCDCDDD2AAD00
:101780000BBD688D499D977EB66ED55EF44E133EB7
:10179000322E511E700E9FFFBEEFDDDFFCCF1BBF50
:1017A0003AAF599F788F8891A981CAB1EBA10CD12A
:1017B0002DC14EF16FE18010A100C230E320045032
:1017C000254046706760B9839893FBA3DAB33DC3A5
:1017D0001CD37FE35EF3B1029012F322D232354282
:1017E000145277625672EAB5CBA5A89589856EF535
:1017F0004FE52CD50DC5E234C324A01481046674D2
:10180000476424540544DBA7FAB79987B8975FE784
:101810007EF71DC73CD7D326F2369106B016576621
:101820007676154634564CD96DC90EF92FE9C8990C
:10183000E9898AB9ABA94458654806782768C01871
:10184000E1088238A3287DCB5CDB3FEB1EFBF98BE4
:10185000D89BBBAB9ABB754A545A376A167AF10AC1
:10186000D01AB32A923A2EFD0FED6CDD4DCDAABDF4
:101870008BADE89DC98D267C076C645C454CA23C11
:10188000832CE01CC10C1FEF3EFF5DCF7CDF9BAFC4
:10189000BABFD98FF89F176E367E554E745E932E61
:1018A000B23ED10EF01E0000000000000114000046
:1018B0000902430002010080320904000001020213
:1018C0000000052400100104240200052406000184
:1018D0000524010001070583030800FF0904010036
:1018E000020A00000007058102400000070502020D
:1018F0004000000000C20100000008006900000074
:0819000041000000000000009E
:1020000000800020959500007F9500007F950000DE
:1020100000000000000000000000000000000000C0
:102020000000000000000000000000007F9500009C
:1020300000000000000000007F950000E99500000E
:102040007F9500007F9500007F9500007F95000040
:102050007F9500007F9500007F950000819500002E
:102060007F9500007F9500007F9500007F95000020
:102070007F9500007F9500001D7500007F95000092
:102080007F9500007F9500007F9500007F95000000
:10209000000000007F9500007F9500007F95000004
:1020A0007F9500007F9500007F9500007F950000E0
:1020B0000000000010B5064C2378002B07D1054B1B
:1020C000002B02D0044800E000BF0123237010BDA4
:1020D00030010020000000000CB50000044B10B5DA
:1020E000002B03D00349044800E000BF10BDC046E8
:1020F00000000000340100200CB5000010B5054CB4
:102100002378002B03D1044805F02AF920702078A9
:1021100010BDC04658010020EA03002010B513008E
:102120000A000100014805F06BF810BDEA03002029
:1021300010B50A000100024804F0E2FF10BDC046DD
:10214000EA030020FA2210B59200002307F00AFFEC
:10215000034B186007F05CFA024B186010BDC046D4
:102160005C01002054010020F7B500250723EC1086
:10217000E4002B40354FE418A400E659002E04D1AA
:10218000012008F02DF8E05106700135382DEDD111
:102190002F4E30487368019300239A00121811687B
:1021A000002903D1019C5900611811600133202BD3
:1021B000F3D100250723EC102B40E400E418264B54
:1021C000A400E758002F05D1012008F009F8224BA0
:1021D0000770E0500135382DECD10023706A1F4C98
:1021E0009A0012191168002902D159004118116092
:1021F0000133202BF4D10023019A194C403299006D
:1022000009190868002802D1580010180860013325
:10221000142BF4D10023F16812481A181468002C0A
:1022200001D1CC1814600433502BF6D1002370690F
:102230000D4C9A0012191168002902D1D9004118D9
:1022400011600133142BF4D1F7BDC0466C1200208D
:1022500074020020A410002028110020201000206B
:1022600008120020700F0020C40F00207FB500F07E
:10227000BBFF02F091F902F0CBF800220E4B04A84C
:1022800004930E4B03A983800D4B0092039313001C
:1022900000F0D4F92022382300920C3A1100019367
:1022A000342000F02BF9FFF75FFF064B18685968E0
:1022B000FFF748FF07B000BDDEADBEEFDEADFFFFAC
:1022C000C0A800B108000020F8B5002407252200AE
:1022D000E310DB002A405C4F9B189B00DB59002B6E
:1022E00007D01A78A0B2531E9A410021D2B200F052
:1022F0008BF90134382CEAD10023544D69685448D5
:102300009A008258002A02D010885A00885201335D
:10231000202BF4D1002407262200E3103240DB00FA
:102320009B184C4A9B009B58002B07D01A78A0B2F0
:10233000531E9A410121D2B200F066F90134382CC3
:10234000EAD10023696A44489A008258002A02D0E0
:1023500014885A008C520133202BF5D10023696870
:102360003E485A008258002A03D010881A00403292
:1023700088520233282BF3D10023E968384AD25817
:10238000002A01D01268CA500433502BF6D1002322
:102390006C69344E9A00B258002A07D0116852680E
:1023A00008001100DA00A218106051600133142BEC
:1023B000F0D100F007FF00260723F4103340E400BB
:1023C000E418A4003B59002B05D0B0B2002100F066
:1023D00009F93B5918700136382EEDD100236A688F
:1023E0001B4899004158002902D05800105A088013
:1023F0000133202BF4D100231848590041580029FB
:1024000003D018004030105A08800233282BF3D133
:102410000023E968124AD258002A01D0C858106037
:102420000433502BF6D1002368690E4C9A00A15852
:10243000002905D0DA008218156856680D604E60D4
:102440000133142BF2D1F8BD6C120020740200206D
:10245000A4100020281100202010002008120020C5
:10246000700F0020C40F002010B501F0D2FF054B03
:102470001868421C1A6000F0BBFE01F0CBFF02F0AE
:1024800033F910BD4C01002010B5FFF7EDFFFFF749
:102490001BFF074B1A78002A08D101321A7007F087
:1024A000B7F8044B1B68C01A034B186010BDC04638
:1024B000500100205C0100205401002070B507F09D
:1024C000A7F80B4C0B4D2368C01A2B68984205D314
:1024D000FFF7DAFF22682B68D318236007F098F81B
:1024E0002368C01A044B984201D9FFF7EDFE70BD76
:1024F000540100205C0100200F270000F0B585B0DA
:102500000D0069460290364C097A019221726946A3
:10251000097968462176611CCB7721000AAA1278D6
:1025200028310392007B0BAA087021001278303109
:1025300025740A70DE085B0700D00136D708530700
:1025400000D00137300007F04BFEE061002802D1D7
:10255000002005B0F0BD3200002107F06DFE029BA7
:102560005E00300007F03CFE60600028F0D03200D2
:10257000002107F061FE002D0AD0AD00280007F011
:102580002FFEE0600028E3D02A00002107F054FE6F
:10259000019B134C002B0AD0DD00280007F020FE21
:1025A00060610028D4D02A00002107F045FE3800E1
:1025B00007F016FEE0620028CAD03A00002107F0BA
:1025C0003BFE039B5D00280007F00AFE60620028C6
:1025D000BED02A00002107F02FFE0120B9E7C04637
:1025E000740200200723C2080340D2B20548002924
:1025F00005D1C169885C1841012318407047C16A40
:10260000F8E7C04674020020072310B5C40818403C
:10261000063B8340E4B2DBB20748002907D1C0691A
:1026200000190178002A04D00B43037010BDC06A62
:10263000F6E799430170F9E774020020F0B5050050
:102640009BB016001F00002909D1FA222749120168
:1026500002F0E8FE264803F03FFA1BB0F0BD14ACD0
:10266000002A07D1200006F013FE2100280003F005
:1026700003F8EFE7002B0CD10EA806F009FE31009D
:10268000200006F005FE22000EA9280002F0D2FF6D
:10269000E0E7209B002B11D108A806F0F9FD3100DE
:1026A0000EA806F0F5FD3900200006F0F1FD23002C
:1026B0000EAA08A9280002F095FFCBE702A806F0B1
:1026C000E7FD310008A806F0E3FD39000EA806F08A
:1026D000DFFD2099200006F0DBFD00940EAB08AA78
:1026E00002A9280002F03AFFB4E7C04660EA000001
:1026F000680200200322054B80381A80044A054BEB
:10270000127858701A7099707047C04660020020A5
:102710007402002060010020F0B54B1E87B07C2BB6
:1027200005D903210800FFF7E5FF07B0F0BD494CCC
:102730004518237A0293237C029A5B009B1801932D
:10274000227E9200D218954202DB02210320EAE7A2
:1027500000274A00404D033292B22A80BC46012530
:102760003E4EAA4204DD634677193B700135F8E717
:102770000325E368033A7570B27003936669636872
:10278000FF240493364B9C46019BEB1A05930139B9
:10279000344A89B29142C8D0029B83420ADD049B2D
:1027A00042009A5A634617121F705A700223013072
:1027B0009C44ECE7019B82B2834219DD029BC71A5D
:1027C00001231A4208D1FA0FD7191F41039B274052
:1027D000BF00FA58120CE5E7029BDF433F18FA0FDF
:1027E000D21952102240039B9200D25892B2D9E7DC
:1027F0002A400AD1019BC71AFA172A40D21992100F
:102800002240D200B2185268E4E7012A0BD1019BA2
:10281000D21A1218D7172F40BA1892102240D2009D
:10282000B2185268E2E7022A0AD1019BD21A1218A2
:10283000D7172F40BA1892102240D200B258C9E7D9
:10284000059B1F18FA172A40D21992102240D20075
:10285000B258CBE774020020600200206001002023
:1028600063010020FFFF000070B5394D2B7C2A7AF0
:102870002C7E5B009B18A400E418A04204DB02211C
:102880000620FFF737FF70BD824203D96A68400017
:102890008152F8E798421BDA821AEC68C3070BD41E
:1028A000D30F9B185B10DBB29B00E3181A68090476
:1028B00092B211431960E6E7531EDA0FD3185B108A
:1028C000DBB29B00E3181A68100C00040143F1E727
:1028D000032406006A6926400DD1C31AD817204088
:1028E000C0188010C0B2A0401018436809049BB201
:1028F00019434160C7E7012E0CD1013BC31AD81719
:102900002040C0188010C0B2C000101843681B0CD3
:102910001B04EDE7022E0ED1023BC31AD81720404C
:10292000C0188010C0B2C0001018036809049BB220
:1029300019430160A7E7033BC31AD8172040C0180A
:102940008010C0B2C000101803681B0C1B04EFE716
:1029500074020020F0B54B1E87B07A2B02D84B00D2
:102960009A4205D003211020FFF7C4FE07B0F0BD46
:102970004E4B0D181A7A00921C7C6400A4181A7E23
:1029800092001219954201DB0221ECE70625484A24
:10299000FF261580474A0A355570051295700025A7
:1029A000D070157151715A6903350292DA685B680B
:1029B00003920493404B01932B1B059301393F4B2A
:1029C00089B29942D2D0019B1A785B7812021A43DD
:1029D000009B834207DD049F4300FA52019B0130B4
:1029E00002330193EAE783B2844222DD009FC71BD2
:1029F000BC4601273B420DD16346DB0F63443B419C
:102A0000039F33409B00FB181F681204BFB23A4378
:102A10001A60E3E7009B039FDB431B189C46DB0F18
:102A200063445B1033409B00FB181F683F0C3F045E
:102A3000EDE72B400FD1031B9C46DB172B40634473
:102A40009B10029F3340DB00FB185F681204BFB28B
:102A50003A435A60C2E7012B0ED11B1B1B18DF172C
:102A60002F40BC4663449B10029F3340DB00FB18A1
:102A70005F683F0C3F04EBE7022B0AD11B1B1B18BE
:102A8000DF172F40BC4663449B103340DB00029F9E
:102A9000B9E7059B029F9C4684446346DB172B40A5
:102AA00063449B103340DB00BEE7C0467402002045
:102AB000600200206001002067010020FFFF00008D
:102AC000F7B54B1E284A9BB20C000090032193429D
:102AD00007D8264A009B0132D27F1B19934204DD9E
:102AE00002210120FFF706FEF7BDE308204A610737
:102AF0000FD10333138013888022012052009342A8
:102B000009D800251B4A834207DD11180D700130DA
:102B1000F9E70433EEE70421E4E70026012135005C
:102B2000033B144F517093700191009B0021981941
:102B3000FF231840FFF756FD0199F210A940013C10
:102B40000332A4B2C9B2BB5C00280AD00B430135E2
:102B5000EDB2BB54082D00D100250136002CE4D184
:102B6000C2E78B43F3E7C046CF07000074020020A2
:102B70006002002060010020F7B54B1E274A9BB27F
:102B80000C0001900321934222D8254A019B303248
:102B900012781B19934204DD02210800FFF7AAFDF9
:102BA000F7BDE3081F4A61070FD10333802113806B
:102BB0001388490001228B4209D800251A49934203
:102BC00008DD881805700132F9E70433EEE70421C7
:102BD0000220E3E7002602223500033B124F4A7031
:102BE0008B70019B0121981980B2FFF7FBFC01213A
:102BF000A940F210013C0332A4B2C9B2BB5C002868
:102C00000AD00B430135EDB2BB54082D00D100258D
:102C10000136002CE5D1C3E78B43F3E7CF07000073
:102C2000740200206002002060010020F8B54B1EF5
:102C30007C2B04D903210420FFF75CFDF8BD154D62
:102C400043182A0028321278934201DD0221F2E76C
:102C50004B00114A03339BB21380002701220F4C13
:102C6000934203DDA61837700132F9E7033BA370E6
:102C70006B6A0422400018180023094F6270013962
:102C800089B2B942DAD0C55AE2182E12D67015713F
:102C90000233F4E77402002060020020600100208B
:102CA000FFFF0000FF2310B51B02994206D0002948
:102CB00004D003210520FFF71DFD10BD074B013394
:102CC000DB7F834201DC0221F4E7054BC9184A424D
:102CD0004A410021D2B2FFF797FCEEE774020020D0
:102CE0000001FFFFF7B50C00CB080190DBB26107D4
:102CF00001D00133DBB2611E1D4889B2814201D887
:102D0000934204D003210F20FFF7F4FCF7BD194ACA
:102D1000019B0132D27FE318934201DD0221F2E7E9
:102D20000622154B00271A800F23144E3D007370A6
:102D3000019B74711B12B3706B461B79F3702312E5
:102D40003371FB10F318DA7901232A411A40019BF1
:102D50000135D819013C80B20021EDB2A4B2FFF7D1
:102D600053FC082D00D100250137002CE9D1CDE717
:102D7000AF07000074020020600200206001002004
:102D800010B501F048FB0422044B1A80044B3D327D
:102D90005A7002129A70D87010BDC04660020020AE
:102DA00060010020F7B506000C000092019301F0CD
:102DB00032FB0D4F0D4DB04202D9009BF92B06D9C5
:102DC00003233B803F336B703F33AB70F7BD611E15
:102DD0008C41019AE1B2300001F0BEFB03233B803D
:102DE0003F336B703C33F0E760020020600100204D
:102DF000F0B585B00600039101F00DFBB04246D955
:102E0000039B984243D99E4241D8254B35000193FC
:102E100000230293280001F001FB029AAFB284184C
:102E2000230080220B330090520093422CD82800BC
:102E300001F00EFB009A0100019807F0F4F9009AE6
:102E4000019B944601356344039A0193ABB202940B
:102E50003E009A42DED2134BE21D1A804322124BEF
:102E60005A703B329A703A12DA70104A1F71126827
:102E70009C72110E5971110C99711A72110A220A61
:102E8000D9715A7205B0F0BD3700029CE3E7032206
:102E9000044B1A80044B40325A703E329A70F1E76C
:102EA0006B01002060020020600100204C01002026
:102EB000F0B5A5B004900C0001F0ADFA049B0590AC
:102EC0003C2B1CD82100002304989AB2904220D8B1
:102ED00000260B2537000296049B2D4CB3423DD0B3
:102EE00006AA73009B5A059A019393421BD30322AF
:102EF000284B1A80442363703D33A37007E00322FC
:102F0000244B1A80224B41325A703E329A7025B0BF
:102F1000F0BD08784A7800025C00024306A82252FD
:102F200001330231D0E7019801F078FA80222B18A2
:102F3000039001365200934210D8019801F088FAAC
:102F4000039A0100281907F06EF96B469B895D19F9
:102F5000DF19019BADB2BFB20293BDE70D4BA77263
:102F60001D80442363703A33A370029B1B12E370ED
:102F70006B461B7A2371084B1B681A0E62711A0C80
:102F8000A27123721A0A3B12E2716372BFE7C04654
:102F900060010020600200204C01002030B58BB0A1
:102FA0006B469C1C01000222200007F03CF923889C
:102FB000124A0020934203D0114A934215D10120B6
:102FC00001F0E2FA45230F4C01AD63702122393341
:102FD0000D492800A37007F026F90023EA5C002AB7
:102FE00007D0E118CA700133F8E70322074B1A80B3
:102FF000E8E7064A033313800BB030BDADDE0000B6
:10300000DEAD000060010020CCA4000060020020C2
:1030100070B52C4A9078D17816795579537800029A
:1030200008433102294392790F2B39D013D8032B4F
:1030300024D008D8012B27D0022B28D098B2012108
:10304000FFF758FB06E0052B27D023D3062BF5D13D
:10305000FFF70AFC70BD422B2DD006D8102B10D0E4
:10306000412BEBD1FFF78CFEF4E7442B1FD01BD391
:10307000452BE3D11448FFF791FFEBE7FFF74CFB3B
:10308000E8E7FFF767FCE5E7FFF71AFDE2E7FFF780
:1030900073FDDFE7FFF7CAFDDCE7FFF703FED9E7C3
:1030A00092B2FFF71FFED5E7FFF7A2FED2E707496E
:1030B000FFF7FEFECEE72D022A43054B3100FFF756
:1030C00071FEC7E76001002062010020640100205A
:1030D000670100200C23F0B589B000AFF81835491E
:1030E00002F032FD3B7F072B60D80C23F81802F06A
:1030F0000BFB00285AD06B4600247B600C26B819C5
:1031000002F04EFB2C4D002806D0B81902F05BFBF4
:1031100028550134062CF1D12A796B791202274EF9
:1031200013433380AA78002A3ED1EC78002C3BD19F
:10313000063BFA2B38D80C23F81802F031FB002894
:103140000DD00C23F81802F03EFB1D4B18553388A8
:103150000134A34203D080235B009C42EBD133882F
:10316000A34221D1FFF754FF3288694613122B7115
:1031700013000D33DB08DB00CB1A9D4600236946A4
:103180006A71E85CC8540133062BFAD100230C4D58
:103190009A4204DDEC5CC81884710133F8E70C2313
:1031A0000632F81802F0ECFA7B689D46BD4609B07D
:1031B000F0BDC046680200206202002060020020CC
:1031C0006001002010B5FFF785FF10BD0022044B01
:1031D0005A60044A1A60FB2252001A817047C046A6
:1031E00068020020D4A9000010B501F0F9F810BD64
:1031F00010B501F001F910BD43680E4902688B4219
:1032000003DB002A06DD002B04DA013A02600A4AD9
:103210009B1843604368084902688B4203DC002A1C
:1032200006DA002B04DD01320260024A9B1843607B
:103230007047C046003665C400CA9A3B002208B4F5
:1032400083B003AB9A5605AB0193049B00205BB29D
:10325000934200DA013003B001B0704708B483B084
:1032600007AB049801930699039A059B401A9A426A
:1032700000D0D01A431E1843C00F431E984103B01C
:1032800001B0704730B5012401234A1E91410470FA
:10329000C35689000B434370C37842790B43C37014
:1032A00000230A434271C27905190A43C271427A66
:1032B00084700A434272C27A03710A43C272427B2B
:1032C00083710A434273427C03720A434274C27C94
:1032D00083720A43C274427D03730A430474847484
:1032E000037542758361C361EA7F0A43EA77421D31
:1032F000D377851DEA7F0A43EA778362C3622A3562
:103300002A780A432A700200343213706A790A4319
:103310006A71020036321370EA790A43EA718363F4
:10332000C3632A7C0A432A74436483642A7F0A4362
:103330002A770200503214709470D47855780C4378
:10334000D47054790D430C435570137154718365D7
:10335000C365147C13750C431474547D0C4354756D
:1033600004008366C3665134E27F05340A43A276C3
:1033700002005532D377E27F02340A4362770200BB
:103380005732D377E27F0A43E2778367C3672834F3
:1033900022780A43227002000832D3678032136019
:1033A0008C3003781943017030BD00000222F0B563
:1033B000C3788DB0134002780400002A04D1002B9A
:1033C00000D183700DB0F0BD002B01D101338370AB
:1033D0002379002B00D196E1A379002B00D192E153
:1033E000237A002B00D18EE10222637D134006D1A7
:1033F000227B002A02D1A37A5A1E9341237502220E
:10340000631CDB7F134002D1A361C44BE361022242
:10341000E37C1340227C002A28D1002B00D1A37426
:10342000250055352B789B0703D4631DDA7F4F3376
:103430001A702300022260331B78134002D1A36567
:10344000B74BE365230002215033DA780A4019783C
:10345000002900D0AEE0002A00D19A70637B9B0760
:10346000B0D4230064331B782373ABE7002B01D166
:103470000133A374230040331B789B0704D423003B
:10348000A84A383303CA03C3A74A616B237D0225C8
:1034900011421DD1002B1DD0230035331B782B4248
:1034A00003D12300012234331A700222A31DDB7FD3
:1034B000134001D1621DD37723004C331B789B0747
:1034C0001FD4230022004433383203CA03C318E058
:1034D000002B20D1230030331B781D4001D1A56281
:1034E000E5620222A31DDB7F134001D1621DD37769
:1034F0002300022235331B78134002D122003432DC
:103500001370230037331B789B0789D42300227D57
:1035100036331A7084E7260000273436F757012F18
:10352000EFD1626CA3690AA89B180A93A26CE369A5
:103530009B180B93FFF760FE0AA9082206A806F065
:1035400072FE230001AA383303CB03C2079B2A0073
:1035500000930021069B3800FFF780FE22003032E6
:10356000002814D0230035331B782B4200D135704E
:10357000A31DDB7F9B0702D40121631DD97713783C
:103580009B07BED423002200283318329DE713780E
:103590002B42B6D1626CA36B0AA89B1A0A93A26C49
:1035A000E36B9B1A0B93FFF727FE0A9BA3620B9B0F
:1035B000E362A6E7002A01D101329A70220080322C
:1035C0001278920704D422005649783241C941C288
:1035D0001F22AA5605921B790493002A1BD12300AF
:1035E0005733DB7F002B00D193E0049B002B15D1D8
:1035F00023005633DB7F9B0701D40123EB772300A5
:103600008C331B789B0718D4220023007832843334
:1036100003CA03C311E0049B002B2AD0230002221B
:103620005133DB7F134001D1A366E36623000222FE
:103630005633DB7F134000D1EB7722005032537DAD
:103640009B070BD411790123002906D123005533A0
:10365000DB7F5BB2013B59424B411375230058336A
:10366000DB7F9B0700D5F9E6230012795733DA7721
:10367000F4E6059B012BE0D1260027000836F26F07
:10368000A36D88379B180A933A68E36D0AA89B18C4
:103690000B93FFF7B1FD0AA9082208A806F0C3FDA5
:1036A000230001AA783303CB03C2099B02220093B3
:1036B0000499089B0598FFF7D1FD2200022351329F
:1036C00000280DD021005631C97F194200D1EB7777
:1036D000D37F9B07B1D4230022006833583297E789
:1036E000D27F1A42A9D1F26FA16F3B688A1A0A925F
:1036F000E26F0AA8D31A0B93FFF77EFD0A9BA3661D
:103700000B9BE36699E70222637B134000D1ABE693
:1037100058E6049B002B90D080E7C04600E1F505F9
:1037200000A3E11160120020FF00FF00F8B50D00BA
:10373000FD4B040018682B0004215E1EB3410022DB
:10374000206061569B0019432171F8490270086896
:10375000217BA06019432173F54902700868217D1F
:10376000206119432175F34902700868217FA06127
:1037700019432177F04902700868661D206227000E
:10378000F17F44371943F177EC4902700868273616
:10379000A062317819433170E949027008682063EA
:1037A000317A19433172E74902700868A063317CAD
:1037B00019433174E44902700E68201D266439787B
:1037C00019433970E14932700E680837A6643978B8
:1037D00019433970DE4932700E682665397A19430B
:1037E0003972DC4932700E68A665397C1943397428
:1037F000D94932700E6808372666397C1943397406
:10380000D64932700E680837A666397C1943397478
:10381000D34932700E6808372667397C19433974EA
:10382000D04932700E68A667397E194339763270F6
:10383000CD490E68C6678030017819430170CB49C5
:103840003270086821002600883108608C36317893
:1038500019433170C6490270086821009031086030
:10386000317A083619433170C24902700868210064
:1038700098310860317A19433172BF490270086883
:103880002100A0310860317C19433174BB490270BA
:1038900008682100A8310860317E08361943317468
:1038A000B749027008682100B0310860317E0836DF
:1038B00019433174B349027008682100B8310860B7
:1038C000317E083619433174AF490270086821000F
:1038D000C0310860317E083619433174AB4902703B
:1038E00008682100C8310860317E083619433174F8
:1038F000A749027008682100D0310860317E08367F
:10390000194331740270A349083608682100D83180
:103910000860317C194331749F49027008682100A6
:10392000E0310860317E0836194331749B490270DA
:1039300008682100E8310860317E08361943317487
:103940009749027008682100F0310860317E08361E
:10395000194331749349027008682100F8310860F6
:10396000317E1943317621000270FF3188784A7028
:1039700018438870812101204900605461184E78F5
:1039800088701E434E70CE780A711E43CE704E79F9
:103990008A711E434E71CE791E43CE718521490036
:1039A000605421000B31FF314E7888701E434E70F9
:1039B000CE780A711E43CE704E798A751E434E71C1
:1039C000CE7D8A711E43CE75CE790A721E43CE71AA
:1039D0004E7A8A721E434E72CE7A1E43CE724E7B50
:1039E0000A731E434E73CE7B8A731E43CE734E7C86
:1039F0000A741E434E74CE7C8A741E43CE744E7D70
:103A00000A751E434E7591214900605421002331EF
:103A1000FF314E7888701E434E70CE780A711E4377
:103A2000CE704E798A711E434E71CE790A721E4352
:103A3000CE714E7A8A721E434E72CE7A1E43CE7279
:103A40004E7B0A731E434E73CE7B8A731E43CE7326
:103A50004E7C0A741E434E74CE7C8A741E43CE7410
:103A60004E7D0A751E434E75CE7D8A751E43CE75FA
:103A70004E7E0A761E434E76CE7E8A761E43CE76E4
:103A80004E7F0A771E434E77CE7F8A771E43CE77CE
:103A9000260009182536CA77FF36F17F023619430A
:103AA000717721002631FF31CA77F17F0236194341
:103AB000717721002831FF31CA77F17F1943F177FF
:103AC000A4214900605421004931FF318870C87831
:103AD0004E781843C87048791E4318434871C87916
:103AE0004E701843C871487A0A7118434872C87AF0
:103AF0008A711843C872487B0A7218434873C87B9E
:103B00008A721843C873487C0A7318438A730A740C
:103B10004874C87C8A741843C874487D0A75184371
:103B20004875AF2149003FE070000020740000207C
:103B3000780000207C00002080000020840000200D
:103B4000880000208C0000201000002014000020BD
:103B5000180000201C00002020000020240000206D
:103B6000280000202C00002030000020340000201D
:103B7000380000203C0000204000002044000020CD
:103B8000480000204C00002050000020540000207D
:103B9000580000205C00002060000020640000202D
:103BA000680000206C000020625460222000FF3278
:103BB000A15C61300B43A3542900FF30FFF762FB87
:103BC0002000F1302900FF30FFF75CFBF8BDC04654
:103BD000F0B50500FF352B7985B004009B0701D4B3
:103BE0000123EB702B7A9B0701D40123EB71022296
:103BF000E61CFF36F37813400132FF32A25C002A44
:103C000000D0BFE2002B00D1B37060230222FF334B
:103C1000E15C114008D109230120EB560091FFF728
:103C20000DFBAF235B00E054AB789B0703D4AF23BD
:103C30005B00E35C6B702B7C9B0701D40123EB736F
:103C40000223AA7C1A4205D122791A4200D1A5E2A8
:103C500063796B7402232A7D1A4205D1227B1A42B2
:103C600000D19EE2637BEB740223AA7D1A4205D148
:103C7000227D1A4200D197E2637D6B7502232A7E72
:103C80001A4205D1227F1A4200D190E2637FEB7580
:103C90000223AA7E1A4207D1621DD27F1A4200D1A6
:103CA00088E2A31DDB7F6B7602232A7F1A4209D1AB
:103CB00022002C3212781A4200D17EE223002D33EA
:103CC0001B78EB760223AA7F1A4209D122003432F4
:103CD00012781A4200D172E2230035331B786B77D9
:103CE0002023FF33E25C1E3BFF3B1A4209D1220036
:103CF0003C3212781A4200D163E223003D331B7834
:103D0000EB77230002210B33FF33DA780A400931C5
:103D1000FF31615C002900D055E2002A00D19A7081
:103D20002823FF33E25C263BFF3B1A4202D1932259
:103D30005200A354250002222335FF35EB781340AF
:103D40002132FF32A25C002A00D05CE2002B00D1BD
:103D5000AB70270084373B78261D9B0704D494233F
:103D60005B00E35CF26F137023008C3302931B78CB
:103D70009B0706D423009522883352001B68A25C5F
:103D80001A702300943303931B789B0706D42300F7
:103D90009622903352001B68A25C1A7023009C3359
:103DA0001B789B0706D423009722983352001B6888
:103DB000A25C1A702300A4331B789B0706D423004F
:103DC0009822A03352001B68A25C1A702300AC3307
:103DD0001B789B0706D423009922A83352001B6846
:103DE000A25C1A702300B4331B789B0706D423000F
:103DF0009A22B03352001B68A25C1A702300BC33B5
:103E00001B789B0706D423009B22B83352001B6803
:103E1000A25C1A702300C4331B789B0706D42300CE
:103E20009C22C03352001B68A25C1A702300CC3362
:103E30001B789B0706D423009D22C83352001B68C1
:103E4000A25C1A702300D4331B789B0706D423008E
:103E50009E22D03352001B68A25C1A702300DC3310
:103E60001B789B0706D423009F22D83352001B687F
:103E7000A25C1A702300E4331B789B0706D423004E
:103E8000A022E03352001B68A25C1A702300EC33BE
:103E90001B789B0706D42300A122E83352001B683D
:103EA000A25C1A702300F4331B789B0706D423000E
:103EB000A222F03352001B68A25C1A702300FC336C
:103EC0001B789B0706D42300A322F83352001B68FB
:103ED000A25C1A704E23FF33E35C9B0703D4A62336
:103EE00003225B00E254250002224935FF35EB78BE
:103EF00013404732FF32A25C002A00D0FFE1002BC2
:103F000000D1AB70210044310B789B0704D4A72368
:103F10005B00E35C226C137022004C3213789B0729
:103F200004D4A8235B00E35CA06C0370230054332B
:103F30001B789B0704D4A9235B00E35C206D03700E
:103F400023005C331B789B0704D4AA235B00E35C4B
:103F5000A06D0370230064331B789B0704D4AB234C
:103F60005B00E35C206E037023006C331B789B07BF
:103F700004D4AC235B00E35CA06E037023007433B5
:103F80001B789B0704D4AD235B00E35C206F0370B8
:103F900023007C331B789B0704D4AE235B00E35CD7
:103FA000A06F03706623FF33E05C643BFF3B184265
:103FB00015D10978194200D1F0E123004533197871
:103FC0000123002908D13B789B0700D4E8E12300B6
:103FD00085331B78591E8B41B221490063546823F5
:103FE000FF33E15C663BFF3B194216D112781A425F
:103FF00000D1D7E123004D331A780123002A09D1DB
:10400000029B1B789B0700D4CEE123008D331B78E5
:104010005A1E9341B3225200A3546A23FF33E25C39
:10402000683BFF3B1A4218D12200543212781A42E0
:1040300000D1BDE1230055331A780123002A09D1AC
:10404000039B1B789B0700D4B4E1230095331B78B6
:104050005A1E9341B4225200A3546C23FF33E35CF5
:104060009B0705D42300FF335A78B5235B00E25445
:1040700020006130FF30FFF799F923799B0704D4C2
:10408000B6235B00E35C22681370F623FF33E25C27
:10409000F43BFF3B1A4219D12200643212781A42D3
:1040A00000D18BE1230065331A780123002A0AD15D
:1040B0002300A4331B789B0700D481E12300A533A0
:1040C0001B785A1E9341FA225200A354F823FF335F
:1040D000E25CF63BFF3B1A4219D122006C321278A7
:1040E0001A4200D170E123006D331A780123002AAF
:1040F0000AD12300AC331B789B0700D466E1230070
:10410000AD331B785A1E9341FB225200A354FA236D
:10411000FF33E25CF83BFF3B1A4219D122007432B4
:1041200012781A4200D155E1230075331A78012321
:10413000002A0AD12300B4331B789B0700D44BE13B
:104140002300B5331B785A1E9341FC225200A3541E
:10415000FC23FF33E35C9B0705D42300FF335A782D
:10416000FD235B00E2542000F130FF30FFF71EF921
:10417000237B9B0704D4FE225200A368A25C1A7022
:1041800005B0F0BD002B01D10133B370F3799B076B
:1041900000D53AE5FDF7B2FFB07136E523681B782C
:1041A00057E5A3681B785EE523691B7865E5A3697D
:1041B0001B786CE5236A1B7875E5A36A80E5236BA1
:1041C0008CE5A36B9BE5002A01D101329A70187D22
:1041D0009A7CC001920110439A79197910431A7C94
:1041E000520110439A7B120110431A7BD2001043F4
:1041F0009A7A1B7A920010435B001843C0B20022E7
:10420000FDF78CFF8CE5002B01D10133AB702879D1
:104210000021FDF78DFFEB799B0702D401230340BA
:10422000AB716B7A9B0702D48307DB0F2B72EB7A9F
:104230009B0702D44307DB0FAB726B7B9B0702D457
:104240000307DB0F2B73EB7B9B0702D4C306DB0F4B
:10425000AB736B7C9B0702D48306DB0F2B74EB7C68
:104260009B0702D44306DB0FAB746B7D9B0702D424
:104270000306DB0F2B75EB7D9B0702D4C305DB0F19
:10428000AB756B7E9B0702D48305DB0F2B76EB7E31
:104290009B0702D44305DB0FAB766B7F9B0702D4F1
:1042A0000305DB0F2B77EB7F9B0702D4C304DB0FE7
:1042B000AB7723002533FF33DB7F9B0705D4220038
:1042C00083042432DB0FFF32D37723002733FF33FD
:1042D000DB7F9B0705D4220043042632DB0FFF322D
:1042E000D37723002933FF33DB7F9B0700D530E5ED
:1042F000230000042833C00FFF33D87729E5002BB3
:1043000001D10133AB7028790021FDF711FFEB7962
:104310009B0702D401230340AB7122004932FF32D4
:10432000537A9B0702D48307DB0F137222004932B2
:10433000FF32D37A9B0702D44307DB0F937222002C
:104340004932FF32537B9B0702D40307DB0F137301
:1043500022004932FF32D37B9B0702D4C306DB0F16
:10436000937322004932FF32537C9B0702D48306A9
:10437000DB0F137422004932FF32D37C9B0702D437
:104380004306DB0F937423004933FF335A7D9207B2
:1043900000D5B7E50006C00F1875B3E5236C0EE62F
:1043A000F36F16E6A36C27E6230088331B682EE61E
:1043B000236D41E6230090331B6848E6236E73E6C5
:1043C0002300A0331B687BE6A36E8EE62300A83390
:1043D0001B6896E6236FA9E62300B0331B68B1E69D
:1043E000002110B5024B03481970FFF79FF910BD6B
:1043F0006C0F0020EC0C0020012210B5024B03488A
:104400001A70FFF7E5FB10BD6C0F0020EC0C0020CC
:10441000704770477047862070470000002285284B
:1044200012D80A4BC000181803790F2B0BD006D8EE
:10443000022B08D008320A2B06D0002204E0232BDE
:1044400001D0372BF9D1012210007047F0A40000F1
:104450000C4BC200D0589B181B790F2B0ED005D8DF
:10446000022B0BD00A2B09D0002007E0232B01D010
:10447000372BF9D103799B0701D5053070470068C8
:10448000FCE7C046F0A400002B4B70B51600C2003C
:10449000D4589B181D79002934D0FFF7BFFF0200C4
:1044A0000F2D1BD004D8022D24D00A2D0DD070BDA5
:1044B000232D1CD0372DFAD13100206805F0B3FE32
:1044C0000223227913432371F1E73100200005F024
:1044D000AAFE0223227A13432372E8E73100200068
:1044E00005F0A1FE0223627813436370DFE7601DCD
:1044F0003100E3E73100200005F095FE63781D43AD
:104500006570D4E70F2D10D007D8022D11D00A2DD9
:10451000CDD10222237A9343DEE7232D01D0372D1C
:10452000C5D1022223799343CDE7022263789343D6
:10453000DBE76378AB43D8E7F0A4000010B543187D
:1045400049084118013B884200D110BD02781C780F
:1045500004701A700130F5E770B504000E00150004
:1045600085280ED8074B1B78012B05D1FFF756FF86
:1045700001002800FFF7E2FF2A0031002000FFF7CA
:1045800083FF70BD6D0F0020012801D8014B18700A
:104590007047C0466D0F0020314A324B12681A62D4
:1045A000314A12685A62314A12689A62304A126875
:1045B000DA62304A12681A632F4A12685A632F4A25
:1045C00012689A632E4A1268DA632E4A2E4B1268DA
:1045D0001A622E4A12685A622D4A12689A622D4A4D
:1045E0001268DA622C4A12681A632C4A12685A63FB
:1045F0002B4A12689A632B4A1268DA632A4A1268B5
:104600001A642A4A12685A64294A12689A64294A22
:104610001268DA64284A12681A65284A12685A65CC
:10462000274A12689A65274A1268DA65264A12688C
:104630001A66264A12685A66254A12689A66254AF8
:104640001268DA66244A12681A67244A12685A679E
:10465000234A12689A67234A1268DA677047C0468D
:10466000700000206C1200207400002078000020F0
:104670007C000020800000208400002088000020B2
:104680008C000020100000202811002014000020C1
:10469000180000201C000020200000202400002022
:1046A000280000202C0000203000002034000020D2
:1046B000380000203C000020400000204400002082
:1046C000480000204C000020500000205400002032
:1046D000580000205C0000206000002064000020E2
:1046E000680000206C000020F8B5104B104A1E68CE
:1046F0005F6800233000390005F034FC0D4C0C4A93
:10470000236839001D1825600023300005F02AFCBD
:1047100063689A18084B9A4201D86260F8BD074B4B
:104720000135D21862602560F8E7C0460800002015
:1047300000CA9A3B60120020FFC99A3B003665C44C
:1047400070B506000C008D18AC4207D03368217894
:104750009B683000984720700134F5E770BD7047C2
:10476000704710B50400406802F0C8FF00232376AC
:1047700010BD10B5406802F0E6FF10BDF8B50500A9
:1047800040680C0002F0DAFF2B68E7B2260A9B684B
:10479000012810D139002800FF2798472B68BC4317
:1047A00004439B68310028009847030220003840EA
:1047B000184380B2F8BD310028009847FF262B68C7
:1047C0000002344004439B68390028009847B443F2
:1047D0002043EEE710B5040004F0A0FF200010BD58
:1047E00010B54B1C0BD0102909D0EFF3108472B612
:1047F000102905DD02234376002C00D162B610BDDE
:104800000123427E1A43427618224A4304498918FA
:1048100016228A569340C2691343C361ECE7C0462F
:1048200048B000004B1C17D0102915D0437E9B07C1
:1048300012D4EFF3108272B618234B430749C918FC
:104840000123897D49B28B40C1699943C16100D17F
:104850004176002A00D162B67047C04648B00000D9
:10486000437E002B05D09A0704D5837E002B00D011
:1048700062B67047DB07FCD5C369024A9BB2D360BE
:10488000F7E7C04600180040037E002B04D14376B2
:104890008376C36101330376704700007FB50369F7
:1048A00002AE04000D00029172608B4203D1828A35
:1048B000B3889A4226D0200006223100103005F03D
:1048C000B2FC606802F031FF7379E17A013B581E57
:1048D0008341227B00936068002302F0CBFF337991
:1048E0000021013BDBB2022B01D8074AD15C074B08
:1048F0002A009D4200D91A00606802F0E7FE606855
:1049000002F009FF7FBDC04620A90000001BB700D0
:1049100070B518260400FFF7B7FF33000821207A8E
:104920000D4D4343EB18595605F0E6F833000821C6
:10493000A07A4343EB18595605F0DEF80821607A57
:104940004643AD19695605F0D7F8044B200006CB55
:10495000FFF7A4FF70BDC04648B00000E802002089
:1049600007B5437E00910192002B07D09A070AD524
:10497000EFF310835A425341837672B60099019A3D
:10498000FFF78CFF07BDDB07F8D5C369014A9BB26F
:104990009360F3E700180040F7B500240125194B98
:1049A000194A5D711A601C71184B1948083301933C
:1049B0000360184B184F4360184B194E03810923AD
:1049C0003A0031004575046104758372063B047634
:1049D000C472037305F03EF91248134B019A436009
:1049E000124B457503811B233100026004613A00BC
:1049F00004758372183B0476C472037305F02AF9B8
:104A0000F7BDC046E802002000093D0024A90000CF
:104A1000A802002050060020000000200A08000024
:104A200061470000C8020020680600201D1A00002F
:104A300010B510301422002105F0FEFB10BD10B59A
:104A40000400103104F024FC200010BD10B5040057
:104A5000143104F01DFC200010BD10B50400183105
:104A600004F016FC200010BD10B50400203104F045
:104A70000FFC200010BD302010B50F244B1C087017
:104A80001009224011003731092A01D830321100B3
:104A9000013B5970021EF3D110BD0000F0B59BB070
:104AA00012AF05000591039200212022380005F085
:104AB000C3FBFF2106A80B000A00009104F0BAFB1B
:104AC0000CAB9C46564B07AA0C930DAB13CA13C3F1
:104AD00012682E001A60624604AB1B7F48361375BD
:104AE00061464322300001F0FDF8431C00D194E000
:104AF0004C4B1C2212936B6839001BBA1393039B17
:104B000030001B0A3B726B461B7B7B7280237B81D0
:104B100001F0FDF83E2004AB1A220021C01805F078
:104B20008BFB2B000833190006223800049305F094
:104B30007AFB10223900300001F0E9F82022002130
:104B4000380005F079FB0623039312AC20222100E4
:104B5000300001F0DCF8039B013B0393002BF4D100
:104B6000314B422012933623FF33A3806B461B7DCB
:104B70000622A3713D23E371363B2372063B637229
:104B800004AB0499C01805F04EFB4A20274B284976
:104B9000238204ABC01805F043FCEA7A18A9280068
:104BA000FFF769FF522104ABC9182A7B2800FFF7E1
:104BB00062FF6A7B19A92800FFF75DFF1E22210012
:104BC000300001F0A4F8059B032B18D1194B0C22DF
:104BD00023802B7C2100A3706B7C3000E370AB7CC6
:104BE0002371EB7C6371144BE3802B7F23726B7F0B
:104BF0006372AB7FA372EB7FE37201F088F80F4B17
:104C0000092212930E4B39001393FF2330003B729D
:104C100001F07DF8300001F074F81BB0F0BDC04623
:104C2000A4B4000001010600638253630C0C000071
:104C300060A90000320400003604000037060103BA
:104C4000060F3A3BF0B5A5B005000F00009204F046
:104C5000D9FC06002C004834200001F0A6F80028FA
:104C600009DC04F0CFFC801BB84200D9E7E0322019
:104C700004F0FEFCEEE71BAE24223100200001F020
:104C80006DF83378022B00D0D4E02900A38D0831D1
:104C90000026432B00D0CEE01C9B06221FBA009BAF
:104CA00022A81F6005F0B0FAB04205D12B689F42E0
:104CB00002D36B689F4206D9200000F0F0FF002667
:104CC000300025B0F0BD280004221FA9103005F0E7
:104CD000AAFACC223100200001F040F8200000F0B8
:104CE000D2FF002800DCA6E0200001F01FF83328E6
:104CF00000D191E016DC01285BD007DC0028EDD064
:104D0000200001F013F8FF22024066E0032857D08C
:104D10000628F5D1200001F009F829000700042237
:104D2000203154E03A285DD036DC352839D0362899
:104D3000E6D120002F0000F0F9FF1C370190390068
:104D400003A8009704F0A4FA002109A804F08EFA41
:104D500009A903A804F0C3FA002840D100990FA8BC
:104D600004F096FA2A0015AB9C46364B6032159338
:104D700016AB83CA83C3126861461A602B00624671
:104D80005C331B7D0FA8137504F0A9FA011E26D110
:104D9000FF23019A1A409EE73B2830D0FF289DD080
:104DA000AEE7200000F0C2FF200000F0BFFFC6B257
:104DB00094E7200000F0BAFF2900042214318AE7AA
:104DC000200000F0B3FF2900070004221831200062
:104DD00000F0C4FFFF231F403A1F00217BE704229D
:104DE000009978E7200000F0A1FF29000422283173
:104DF000200000F0B3FFAB6A1BBAAB626EE7200085
:104E000000F094FF290004222C31200000F0A6FFBE
:104E1000EB6A1BBAEB6261E7200000F087FF290014
:104E200004222431200000F099FF6B6A1BBA6B62E8
:104E30002B6353E70026200000F031FF40E7FF26F8
:104E40003EE7C046A4B40000FA21F0B5040085B0E6
:104E5000C900012004F01BF9230048336060206082
:104E60001800009300F01CFF4421009800F023FF7D
:104E70000027B84200D187E004F0C4FB06000027F9
:104E8000250044352B78032B75D0002B11D1636896
:104E90000133636004F0B6FBFA21801B890004F043
:104EA000EBFE012182B22000FFF7F8FD01232B70F9
:104EB00059E0042B10D163680133636004F0A2FB56
:104EC000FA21801B890004F0D7FE032182B2200062
:104ED000FFF7E4FD0223EAE7012B19D103AAE16BF6
:104EE0002000FFF7AFFE01900300022839D1039B99
:104EF000636004F087FBFA21801B890004F0BCFE8C
:104F0000032182B22000FFF7C9FD6B461B79CEE773
:104F1000022B28D103AAE16B2000FFF793FE0300C8
:104F200005281AD103232B70636A002B02D1E123D9
:104F30009B006362A36A002B02D1636A5B08A362D1
:104F4000E36A002B03D1636ADA089B1AE362A36A5F
:104F500001272363E36A636392E7062801D10023F4
:104F6000A5E7FF2BFBD0012F8AD004F04BFBA36BEE
:104F7000801B984283D9009800F092FE6368013349
:104F8000636004F03FFB2064380005B0F0BDF7B566
:104F900006000025062704000836C36345628562C3
:104FA000C5620191826329003A00300005F044F99E
:104FB0002000FFF73DFD3A000199300005F033F97C
:104FC000230044331D702000FFF73EFFFEBD70B587
:104FD000031D0A1D70CA70C312681A600B7D037529
:104FE0000023038370BDF7B50D00002116000C00EF
:104FF0000A27287800281AD00300303B0135092BF6
:1050000007D87C43303C2418A4B2FF2CF1D90020EF
:1050100014E02E28FBD10329F9D04B1CDBB2300061
:10502000019304F06DF9019904700024E1E703296C
:1050300004D1300004F064F904700120FEBDF0B525
:10504000040085B025000E0004F0DCFA21001C35B8
:10505000208318310222280000F059FE02AB9C1D6B
:105060000123022221002800238000F050FE80232B
:1050700002225B0021002800238000F048FE00236C
:10508000022221002800238000F041FE022221009C
:10509000280000F03CFE02222100280000F037FE2C
:1050A00037003378002B1DD03E003378721C0192FC
:1050B000002B01D02E2B13D1F31B0193002B0DDD00
:1050C00002AB591D6B461B79012228000B7000F0C2
:1050D0001EFEF21B3900280000F019FE771CE0E7E5
:1050E000019EE2E7802602AA511D280001220B70D2
:1050F000760000F00CFE210002222800268000F03D
:1051000006FE022221002800268000F000FE012079
:1051100005B0F0BDF0B58BB007000E00009204F0B2
:1051200071FA05003C001C34200000F03EFE00280F
:1051300009DC04F067FA401BB04200D9D8E0322005
:1051400004F096FAEEE73A006B4B3432049305AB69
:1051500023CA23C3126804AE1A603B0030331B7DA0
:1051600031003800337504F0BAF8002804D03B0051
:1051700048331B88352B02D060480BB0F0BD2000AF
:1051800000F081FD0B2800DCB4E00C22310020008F
:1051900000F0E4FD72881302120A13431BB202AA44
:1051A0009DB25580398B3288914201D1002B04DBAE
:1051B000200000F074FD5248DFE7524B1D4004D040
:1051C000200000F06CFD5048D7E7F3881A021B0A54
:1051D00013439BB20193002B04D1200000F05FFD2C
:1051E0004A48CAE7B3885BBA9BB2AB4217D902AB55
:1051F0009F1D01223900200000F0B0FD3A78002AFE
:1052000003D00021200000F0A9FD39780029EED15B
:1052100004222000013500F0A1FDADB2E2E7002636
:10522000022702AB5D1C01222900200000F096FD40
:105230002A783F231100994334D1002A02D020005C
:1052400000F08CFD2D78002DEBD13A0003A9200051
:1052500000F084FD02AB991D3A00200000F07EFDB5
:1052600029000422200000F079FD02AB9D1C3A00C9
:105270002900200000F072FD02AB9B885BBA9BB254
:10528000012B24D102ABDB885BBA9BB2012B1ED170
:105290002B885BBA9BB2042B0CD0200000F0FFFCE3
:1052A0001B486AE701220021200000F057FD00237F
:1052B0002B70C7E7009B009A1B7D111D002B00D1AE
:1052C0000C310422200000F049FD012055E72A8816
:1052D000002152BA92B2200000F040FD0136019B3D
:1052E000B6B2B3429DD1200000F0D9FC094844E792
:1052F000094842E7094840E7A4B40000FEFF000067
:10530000FCFF00000F020000FBFF0000FAFF00009E
:10531000F7FF0000F6FF0000FFFF0000FDFF0000A8
:10532000F0B58BB00400019102920393FFF75BFE8E
:10533000051E3CD12049200003F0D1FF002838D1C0
:1053400004F060F926000F21802301401C36DB00A9
:10535000C918300000F0AFFC012825D1174B221DE1
:10536000049305AB83CA83C3126804A91A60237D22
:1053700004AA13753000352200F0B4FC002810D0C8
:1053800001992000FFF75BFE00280AD0300000F0F2
:10539000B8FC002805D0029A03992000FFF7BAFE56
:1053A0000500300000F07CFC28000BB0F0BD0125AA
:1053B000FAE702256D42F7E7B00C0020A4B4000024
:1053C000030070B5044A04C30A1D70CA70C3126892
:1053D0001A600B7D037570BDA4B4000010B5010008
:1053E0000422012001F076FA10BD10B5010004225C
:1053F000052001F06FFA10BD10B50100062209204A
:1054000001F068FA10BD10B5010004220F2001F070
:1054100061FA10BD10B5024803F004FF10BDC0468C
:10542000F4020020F0B50126454D8DB02B680390A5
:10543000049105923340434C0ED1E364FA232000DB
:105440009B002365404B5C30A36403F0EBFE23001C
:10545000082278331A702E603C4E0025346001F02B
:1054600005FC2F00A84267D0012306AC384F6371BA
:1054700025713900626837480697FFF771FA03987B
:10548000FFF7BAFF2B0000952A002900200003F047
:10549000D1FE237D3D000AA8002B00D007A8FFF70E
:1054A000B2FF2C48FFF7DCF9059B049A039930689A
:1054B000FFF76DFD070001283ED1002360712371C5
:1054C0002349626823480695FFF74AFA20003168AD
:1054D000FFF7B5FA237D07AD0AA8002B00D02800FE
:1054E000FFF791FF20003168FFF7B7FA237D0AA884
:1054F000002B00D02800FFF771FF20003168FFF774
:10550000A5FA237D0AA8002B00D02800FFF76DFF25
:105510001048FFF7A5F931682000FFF7A5FA0E4AF9
:10552000131D43CD43C329681960237D137504F00F
:105530006FF880B200F0B4FD38000DB0F0BDC04689
:10554000F002002010030020F4A900000C0300204A
:1055500000127A00A8020020F4020020F0B585B005
:1055600001900D0014001F0001F080FB002831D0D5
:10557000002302AA1371184E013353711749039A7D
:1055800030000291FFF7ECF90198FFF735FF2B7D12
:10559000281D002B00D10C30FFF735FF3B7D381D57
:1055A000002B00D10C30FFF719FF0A9B0A9A1B7DD4
:1055B000101D002B00D10C30FFF717FF3000FFF754
:1055C0004FF90749221D0B1D61CA61C312681A6099
:1055D000237D0B7505B0F0BDA802002000127A00F3
:1055E000F4020020F0B51C0000230F001600050097
:1055F000A1B00093FF331A00190002A803F01AFEAD
:10560000390008A8FFF7DCFE31000EA8FFF7D8FE2E
:10561000210014A81AACFFF7D3FE02A92000FFF75F
:10562000CFFE009414AB0EAA08A92800FFF796FF3E
:1056300021B0F0BD70B598B00500684616000C00AA
:10564000FFF7BEFE0321684603F05AFE0123210046
:10565000037006A8FFF7B4FE31000CA8FFF7B0FEF8
:10566000694612A8FFF7ACFE12AB0CAA06A92800E7
:10567000FFF7B8FF18B070BD30B593B005006846AD
:105680000C00FFF79DFE0321684603F039FE01235D
:105690002100037006A8FFF793FE69460CA8FFF7E8
:1056A0008FFE0CAA06A92800FFF7C4FF13B030BD77
:1056B0007047037C072200209A424041C0B27047E5
:1056C00001204840704708007047036810B55B6CC4
:1056D0009847030001205840C0B210BD4182704776
:1056E00013B56B460268D97107335468190001225B
:1056F000A04716BD027C0B7C0020934203D10722F9
:105700009A424041C0B2704770B50500007C002449
:10571000072816D800F014FE0200FB23143A1A40A2
:105720001300A2420CD02300A04209D001331C2850
:1057300006D12B6828001B699847431E9841C3B2C5
:105740001C00200070BD10B5037C0020072B02D880
:10575000180000F0E7FF10BD10B50400207C0728FA
:105760000BD800F0EDFD172801D01C2805D1207CB6
:1057700000F0D8FF014B9842F0D910BDFF070000A0
:1057800070B50500007C1400072806D892B200F01E
:1057900057FF002802D101236B600024200070BD58
:1057A00010B5037C0020072B02D8180000F0F4FE8F
:1057B00010BD10B5037C0020072B03D812B21800CF
:1057C00000F054FE10BD13B56B46DC1D007C0122B9
:1057D000210000F04BFE002801DD207816BD0120DD
:1057E0004042FBE710B5037C0400072B02D90120DF
:1057F000404210BD03681B6998470028F7D0207C01
:1058000000F0F4FEF5E710B5040003F087FF200078
:1058100010BD70B50400007C07280BD800F00CFE0A
:1058200003F0F0FE0500207C00F08AFD002802D184
:105830000823237470BD012003F01AFF03F0E2FE79
:10584000638A401B9842EED3207C00F093FDEFE783
:1058500070B50400007C8CB00D001600072808D835
:1058600000F06EFD002802D0207C00F0E5FD08234A
:1058700023740021684603F0F9FC6946280003F010
:105880002EFD002802D000200CB070BD012106A81A
:10589000494203F0EBFC06A9280003F020FD011E9D
:1058A000F1D1212000F006FC20740728EBD82B7DD5
:1058B000291D002B00D10C31320000F099FD03F0BE
:1058C000A1FE0500207C00F03BFD172813D01C280A
:1058D00011D00028D7D003F095FE638A401B984270
:1058E00003D8012003F0C4FEECE7207C00F042FD69
:1058F00008232374C7E70120C6E70000F0B5A3B072
:1059000004000EA80F00019203F08CFC00231693F4
:10591000FA239B001793224B1AA8159303F082FCDD
:10592000082221AB1A7002A803F07CFC207C072817
:1059300008D800F005FD002802D0207C00F07CFD96
:1059400008232374174B08AD0893174B9C466246F7
:1059500009AB043243CA43C3126829001A60634684
:105960001B7D0EA82B75FFF732FB39000F4B02AAE7
:105970000EA8FFF7D5FC09A900280FD02368094A13
:10598000DB69089203AAC1CAC1C1126820000A607B
:1059900002AA127D29002A75019A984723B0F0BD0A
:1059A000F4A90000A4B40000F40200208813000051
:1059B00070B50C001100054A000215781A002D027E
:1059C0006419201880B201F037F870BDE0030020A0
:1059D00073B5037C06000024072B19D86B466A4672
:1059E0001C7101230B4D0C495371019A2800009141
:1059F000FEF7B6FF0223307C6A460421FFF7D8FF8A
:105A00006B461C785B78240228001C43FEF728FFB5
:105A1000200076BDA802002000127A0073B50B7C2E
:105A200004000E00072B04D9002103F01FFC200006
:105A300076BD6A4600230C4D137101330B49537137
:105A4000019A28000091FEF78BFF04236A460C217F
:105A5000307CFFF7ADFF2800FEF702FF694620000B
:105A600003F016FCE3E7C046A802002000127A000B
:105A700073B5037C06000024072B19D86B466A46D1
:105A80001C7101230B4D0C495371019A28000091A0
:105A9000FEF766FF0223307C6A461021FFF788FF7D
:105AA0006B461C785B78240228001C43FEF7D8FE66
:105AB000200076BDA802002000127A000020704766
:105AC000704713B56B460268D971073354681900E3
:105AD0000122A04716BD000070B5050001892120F4
:105AE00000F0E8FA0400072807D800F05DFC002861
:105AF00004D02A89034B6400E25270BD200000F0FC
:105B00009BFCFAE78C03002070B50D4B06001B7858
:105B10000825332B00D1043D00240A4B6200D25AE1
:105B20003389E0B29A4205D00134E3B29D42F4D801
:105B3000002004E000F004FC1428F5D1133870BDF7
:105B4000E80300208C030020F0B52D4B85B01B78B6
:105B500004000E00002B0BD12A4A4360FA23026096
:105B600008229B00836020002274638205B0F0BD90
:105B700008220292332B01D12F3B029300270823E6
:105B8000009701937B0003931F4B7A00D25A33890D
:105B90009A4211D1F8B200F0D3FB0500172801D0CA
:105BA0001C281FD1F8B200F0F7FC002822D11C2DD0
:105BB00002D1F8B200F040FC0137029AFBB29A42DF
:105BC000E0D8009B002B03D1336830001B69984755
:105BD00000230C4A6360FA2322606A469B00A3609C
:105BE0001279C0E7142808D00028E5D1064B7A00C6
:105BF000D052E1E7FBB20193DEE701230093DBE73C
:105C0000E803002070A900008C030020F0B5174BBA
:105C100089B01B78060001911500002B23D00822C3
:105C20000092332B01D12F3B0093310003A8FFF7E3
:105C30008BFF00240E4B6200D25A3389E7B29A429E
:105C400009D1380000F07CFB172804D1AAB20199D1
:105C5000380000F0F5FC0134009AE3B29A42E9D82A
:105C6000280009B0F0BD1D00FAE7C046E803002097
:105C70008C03002010B503689B6B984710BD808D86
:105C80007047008A7047408E704713B56B460268B4
:105C9000D9710733546819000122A04716BD704717
:105CA00010B5303004000078072803D800F062FBFC
:105CB0000823237010BD70B506003036040030781C
:105CC0000D00072801D800F055FB2900022000F044
:105CD000F1F900233070072802D86386258201334A
:105CE000180070BD0B00002110B5C1851C7D30303F
:105CF0000078191D002C01D11033190000F060FD4F
:105D000010BD10B53030007800F088FD10BD93B2A2
:105D1000020070B50D0004003032C18D10782A00E9
:105D200000F024FDE38DC318E38570BD37B5438EC5
:105D30000400002B02D1012040423EBD6B46DD1D18
:105D40000300303318780122290000F08FFB00286F
:105D5000F1DD638E2878013B6386EEE710B5438E54
:105D60000400002B02D10120404210BD30300078E9
:105D7000934208D81AB200F079FB0028F3DD638E55
:105D80001B1A6386F1E712B2F5E7030010B5303352
:105D90001B78072B06D8428E002A03D0180000F08B
:105DA00025FC10BD01204042FBE773B505006C8E59
:105DB000002C06D02B6822009B6B002128009847FE
:105DC000F5E72E003036307800F0E6FB03002000C7
:105DD000002B19D030780822694600F047FB0028D4
:105DE00012DD28006946143003F068FA6B461A7910
:105DF0005B7912029B18AB856B466A469B79D0791A
:105E00001B02C01880B2688676BDF0B50600303639
:105E10000400307887B00F001500072801D800F083
:105E2000A9FA39006846FFF7CBFA2A0069468220B2
:105E300000F0CCF900233070072802D86386258251
:105E40000133180007B0F0BD10B504001431FFF79E
:105E5000B7FA200010BD000070B5A0B004000CA877
:105E60000E00150003F0DEF900231493FA239B00C3
:105E70001593144B18A80833139303F0D3F9082291
:105E80001FAB1A70684603F0CDF90F4906A8FFF75B
:105E900097FA06A90CA8FFF79AF80C4B6A4631004E
:105EA0000CA8FFF73DFA012809D12368694606A826
:105EB0009E6AFFF785FA2A0006A92000B04720B0A5
:105EC00070BDC046ECA90000F40200208813000059
:105ED00013B56B46DC1D064B00021B7801221B022A
:105EE000C918081880B2210000F0A6FD207816BD60
:105EF000E003002007B5074B00021B781B02C918FE
:105F00006B460818D91D0A7080B2012200F0E2FC2D
:105F1000C0B20EBDE003002070B50C001100054AB0
:105F2000000215781A002D026419201880B200F0C2
:105F3000D1FC70BDE0030020F0B50C00050085B079
:105F400003AE00921F00320002232421FFF730FD30
:105F50003278737812021343E418A3B25C050193FC
:105F60001D4B640D1B782800332B2DD10830C00247
:105F700080B2201880B2372B2AD08021E319090182
:105F80008B4225DD0C1BA4B22200009900F0A2FC7C
:105F9000114B28001B78332B18D10830009BC0020E
:105FA0003A1B80B292B2191900F094FC019B3200A6
:105FB000DF19BFB23B12337024210223280077700F
:105FC000FFF7AAFF05B0F0BD1030D0E71030E5E7CD
:105FD0003A000099E8E7C046E803002010B5032125
:105FE000FFF776FF10BD07B50B1201AA13705170B1
:105FF00002230421FFF790FF07BD10B50A00042318
:106000000C21FFF789FF10BD07B50B1201AA137011
:10601000517002231021FFF77FFF07BD13B501ACBC
:10602000022322002021FFF7C3FC237860781B02A3
:10603000184316BD70B50400FFF7F0FF05002000FF
:10604000FFF7ECFF8542F9D1024BE4001C19280050
:10605000A58070BD9C03002013B501AC0223220073
:106060002621FFF7A5FC237860781B02184316BD94
:1060700013B501AC022322002821FFF799FC2378F5
:1060800060781B02184316BD044B1B78332B03D1D9
:106090000C30C00280B270471830FAE7E8030020E5
:1060A000034A80041388800C584010807047C04613
:1060B00090000020F0B53D4B85B01B780190009119
:1060C0000824002B33D02700332B00D1043F0025B8
:1060D00002AB1D71012302AA354E36495371039A52
:1060E00030000291FEF73CFCECB22000FFF776FF97
:1060F00002AB5855002821D00135EBB29F42F3D8AE
:10610000B42100230120890502AAD25CDCB21D2A39
:1061100005D80D00D5402A00050095430AD001336B
:10612000DAB2BA42F0D33000FEF79AFB082420001E
:1061300005B0F0BD1021200000F016FE00251E4A1B
:106140006300FA209D5203F0B5FA019A290020005D
:10615000FFF7D0FE0221FF222000FFF7CBFE009BBD
:106160001900AB4208D1154A1549138801339BB277
:106170008B4218D91380118800272000FFF733FFC6
:106180000121200000F0F0FD0E4DE3005F532000E0
:10619000FFF76EFFE300ED186880AF71AF8030004D
:1061A000FEF75EFBC3E7084BE4E7C046E8030020C8
:1061B000A802002000127A008C030020900000202A
:1061C000FFBF00009C03002000C0FFFFF0B5534B51
